{
  "_format": "hh-sol-artifact-1",
  "contractName": "BBoard",
  "sourceName": "contracts/BBoard.sol",
  "abi": [
    {
      "inputs": [],
      "stateMutability": "nonpayable",
      "type": "constructor"
    },
    {
      "anonymous": false,
      "inputs": [
        {
          "indexed": true,
          "internalType": "address",
          "name": "owner",
          "type": "address"
        },
        {
          "indexed": true,
          "internalType": "address",
          "name": "approved",
          "type": "address"
        },
        {
          "indexed": true,
          "internalType": "uint256",
          "name": "tokenId",
          "type": "uint256"
        }
      ],
      "name": "Approval",
      "type": "event"
    },
    {
      "anonymous": false,
      "inputs": [
        {
          "indexed": true,
          "internalType": "address",
          "name": "owner",
          "type": "address"
        },
        {
          "indexed": true,
          "internalType": "address",
          "name": "operator",
          "type": "address"
        },
        {
          "indexed": false,
          "internalType": "bool",
          "name": "approved",
          "type": "bool"
        }
      ],
      "name": "ApprovalForAll",
      "type": "event"
    },
    {
      "anonymous": false,
      "inputs": [
        {
          "indexed": true,
          "internalType": "uint256",
          "name": "bblockId",
          "type": "uint256"
        },
        {
          "indexed": false,
          "internalType": "address",
          "name": "owner",
          "type": "address"
        }
      ],
      "name": "BBlockCreated",
      "type": "event"
    },
    {
      "anonymous": false,
      "inputs": [
        {
          "indexed": true,
          "internalType": "uint256",
          "name": "bblockId",
          "type": "uint256"
        },
        {
          "indexed": false,
          "internalType": "address",
          "name": "seller",
          "type": "address"
        },
        {
          "indexed": false,
          "internalType": "uint256",
          "name": "price",
          "type": "uint256"
        }
      ],
      "name": "SaleCreated",
      "type": "event"
    },
    {
      "anonymous": false,
      "inputs": [
        {
          "indexed": true,
          "internalType": "address",
          "name": "from",
          "type": "address"
        },
        {
          "indexed": true,
          "internalType": "address",
          "name": "to",
          "type": "address"
        },
        {
          "indexed": true,
          "internalType": "uint256",
          "name": "tokenId",
          "type": "uint256"
        }
      ],
      "name": "Transfer",
      "type": "event"
    },
    {
      "inputs": [
        {
          "internalType": "uint256",
          "name": "bblockId",
          "type": "uint256"
        },
        {
          "internalType": "string",
          "name": "URI",
          "type": "string"
        }
      ],
      "name": "addContentToBBlock",
      "outputs": [],
      "stateMutability": "payable",
      "type": "function"
    },
    {
      "inputs": [
        {
          "internalType": "address",
          "name": "to",
          "type": "address"
        },
        {
          "internalType": "uint256",
          "name": "tokenId",
          "type": "uint256"
        }
      ],
      "name": "approve",
      "outputs": [],
      "stateMutability": "nonpayable",
      "type": "function"
    },
    {
      "inputs": [
        {
          "internalType": "address",
          "name": "owner",
          "type": "address"
        }
      ],
      "name": "balanceOf",
      "outputs": [
        {
          "internalType": "uint256",
          "name": "",
          "type": "uint256"
        }
      ],
      "stateMutability": "view",
      "type": "function"
    },
    {
      "inputs": [
        {
          "internalType": "uint256",
          "name": "bblockId",
          "type": "uint256"
        }
      ],
      "name": "buyBBlock",
      "outputs": [],
      "stateMutability": "payable",
      "type": "function"
    },
    {
      "inputs": [
        {
          "internalType": "uint256",
          "name": "bblockId",
          "type": "uint256"
        }
      ],
      "name": "cancelSale",
      "outputs": [],
      "stateMutability": "nonpayable",
      "type": "function"
    },
    {
      "inputs": [],
      "name": "createToken",
      "outputs": [
        {
          "internalType": "uint256",
          "name": "",
          "type": "uint256"
        }
      ],
      "stateMutability": "payable",
      "type": "function"
    },
    {
      "inputs": [
        {
          "internalType": "uint256",
          "name": "bblockId",
          "type": "uint256"
        }
      ],
      "name": "fetchBBlockById",
      "outputs": [
        {
          "components": [
            {
              "internalType": "uint256",
              "name": "bblockId",
              "type": "uint256"
            },
            {
              "internalType": "address payable",
              "name": "seller",
              "type": "address"
            },
            {
              "internalType": "address payable",
              "name": "owner",
              "type": "address"
            },
            {
              "internalType": "uint256",
              "name": "price",
              "type": "uint256"
            },
            {
              "internalType": "uint256",
              "name": "feeMultiplier",
              "type": "uint256"
            }
          ],
          "internalType": "struct BBoard.BBlock",
          "name": "",
          "type": "tuple"
        }
      ],
      "stateMutability": "view",
      "type": "function"
    },
    {
      "inputs": [
        {
          "internalType": "address",
          "name": "adr",
          "type": "address"
        }
      ],
      "name": "fetchBBlocksByAddress",
      "outputs": [
        {
          "components": [
            {
              "internalType": "uint256",
              "name": "bblockId",
              "type": "uint256"
            },
            {
              "internalType": "address payable",
              "name": "seller",
              "type": "address"
            },
            {
              "internalType": "address payable",
              "name": "owner",
              "type": "address"
            },
            {
              "internalType": "uint256",
              "name": "price",
              "type": "uint256"
            },
            {
              "internalType": "uint256",
              "name": "feeMultiplier",
              "type": "uint256"
            }
          ],
          "internalType": "struct BBoard.BBlock[]",
          "name": "",
          "type": "tuple[]"
        }
      ],
      "stateMutability": "view",
      "type": "function"
    },
    {
      "inputs": [],
      "name": "fetchBBlocksForSale",
      "outputs": [
        {
          "components": [
            {
              "internalType": "uint256",
              "name": "bblockId",
              "type": "uint256"
            },
            {
              "internalType": "address payable",
              "name": "seller",
              "type": "address"
            },
            {
              "internalType": "address payable",
              "name": "owner",
              "type": "address"
            },
            {
              "internalType": "uint256",
              "name": "price",
              "type": "uint256"
            },
            {
              "internalType": "uint256",
              "name": "feeMultiplier",
              "type": "uint256"
            }
          ],
          "internalType": "struct BBoard.BBlock[]",
          "name": "",
          "type": "tuple[]"
        }
      ],
      "stateMutability": "view",
      "type": "function"
    },
    {
      "inputs": [],
      "name": "fetchLastNFTs",
      "outputs": [
        {
          "components": [
            {
              "internalType": "uint256",
              "name": "bblockId",
              "type": "uint256"
            },
            {
              "internalType": "address payable",
              "name": "seller",
              "type": "address"
            },
            {
              "internalType": "address payable",
              "name": "owner",
              "type": "address"
            },
            {
              "internalType": "uint256",
              "name": "price",
              "type": "uint256"
            },
            {
              "internalType": "uint256",
              "name": "feeMultiplier",
              "type": "uint256"
            }
          ],
          "internalType": "struct BBoard.BBlock[]",
          "name": "",
          "type": "tuple[]"
        }
      ],
      "stateMutability": "view",
      "type": "function"
    },
    {
      "inputs": [
        {
          "internalType": "uint256",
          "name": "tokenId",
          "type": "uint256"
        }
      ],
      "name": "getApproved",
      "outputs": [
        {
          "internalType": "address",
          "name": "",
          "type": "address"
        }
      ],
      "stateMutability": "view",
      "type": "function"
    },
    {
      "inputs": [],
      "name": "getBBlockIdCounter",
      "outputs": [
        {
          "internalType": "uint256",
          "name": "",
          "type": "uint256"
        }
      ],
      "stateMutability": "view",
      "type": "function"
    },
    {
      "inputs": [],
      "name": "getBasefee",
      "outputs": [
        {
          "internalType": "uint256",
          "name": "",
          "type": "uint256"
        }
      ],
      "stateMutability": "view",
      "type": "function"
    },
    {
      "inputs": [],
      "name": "getBoolContentChangeFee",
      "outputs": [
        {
          "internalType": "bool",
          "name": "",
          "type": "bool"
        }
      ],
      "stateMutability": "view",
      "type": "function"
    },
    {
      "inputs": [
        {
          "internalType": "uint256",
          "name": "bblockId",
          "type": "uint256"
        }
      ],
      "name": "getContentChangeFee",
      "outputs": [
        {
          "internalType": "uint256",
          "name": "",
          "type": "uint256"
        }
      ],
      "stateMutability": "view",
      "type": "function"
    },
    {
      "inputs": [
        {
          "internalType": "uint256",
          "name": "bblockId",
          "type": "uint256"
        }
      ],
      "name": "getFeeMultiplier",
      "outputs": [
        {
          "internalType": "uint256",
          "name": "",
          "type": "uint256"
        }
      ],
      "stateMutability": "view",
      "type": "function"
    },
    {
      "inputs": [],
      "name": "getMaxBBlocks",
      "outputs": [
        {
          "internalType": "uint256",
          "name": "",
          "type": "uint256"
        }
      ],
      "stateMutability": "view",
      "type": "function"
    },
    {
      "inputs": [
        {
          "internalType": "uint256",
          "name": "bblockId",
          "type": "uint256"
        }
      ],
      "name": "getPrice",
      "outputs": [
        {
          "internalType": "uint256",
          "name": "",
          "type": "uint256"
        }
      ],
      "stateMutability": "view",
      "type": "function"
    },
    {
      "inputs": [
        {
          "internalType": "address",
          "name": "owner",
          "type": "address"
        },
        {
          "internalType": "address",
          "name": "operator",
          "type": "address"
        }
      ],
      "name": "isApprovedForAll",
      "outputs": [
        {
          "internalType": "bool",
          "name": "",
          "type": "bool"
        }
      ],
      "stateMutability": "view",
      "type": "function"
    },
    {
      "inputs": [],
      "name": "name",
      "outputs": [
        {
          "internalType": "string",
          "name": "",
          "type": "string"
        }
      ],
      "stateMutability": "view",
      "type": "function"
    },
    {
      "inputs": [
        {
          "internalType": "uint256",
          "name": "tokenId",
          "type": "uint256"
        }
      ],
      "name": "ownerOf",
      "outputs": [
        {
          "internalType": "address",
          "name": "",
          "type": "address"
        }
      ],
      "stateMutability": "view",
      "type": "function"
    },
    {
      "inputs": [
        {
          "internalType": "address",
          "name": "from",
          "type": "address"
        },
        {
          "internalType": "address",
          "name": "to",
          "type": "address"
        },
        {
          "internalType": "uint256",
          "name": "tokenId",
          "type": "uint256"
        }
      ],
      "name": "safeTransferFrom",
      "outputs": [],
      "stateMutability": "nonpayable",
      "type": "function"
    },
    {
      "inputs": [
        {
          "internalType": "address",
          "name": "from",
          "type": "address"
        },
        {
          "internalType": "address",
          "name": "to",
          "type": "address"
        },
        {
          "internalType": "uint256",
          "name": "tokenId",
          "type": "uint256"
        },
        {
          "internalType": "bytes",
          "name": "_data",
          "type": "bytes"
        }
      ],
      "name": "safeTransferFrom",
      "outputs": [],
      "stateMutability": "nonpayable",
      "type": "function"
    },
    {
      "inputs": [
        {
          "internalType": "uint256",
          "name": "bblockId",
          "type": "uint256"
        },
        {
          "internalType": "uint256",
          "name": "price",
          "type": "uint256"
        }
      ],
      "name": "sellBBlock",
      "outputs": [],
      "stateMutability": "payable",
      "type": "function"
    },
    {
      "inputs": [
        {
          "internalType": "address",
          "name": "operator",
          "type": "address"
        },
        {
          "internalType": "bool",
          "name": "approved",
          "type": "bool"
        }
      ],
      "name": "setApprovalForAll",
      "outputs": [],
      "stateMutability": "nonpayable",
      "type": "function"
    },
    {
      "inputs": [
        {
          "internalType": "uint256",
          "name": "x",
          "type": "uint256"
        }
      ],
      "name": "setBasefee",
      "outputs": [],
      "stateMutability": "nonpayable",
      "type": "function"
    },
    {
      "inputs": [
        {
          "internalType": "bool",
          "name": "value",
          "type": "bool"
        }
      ],
      "name": "setBoolContentChangeFee",
      "outputs": [],
      "stateMutability": "nonpayable",
      "type": "function"
    },
    {
      "inputs": [
        {
          "internalType": "uint256",
          "name": "value",
          "type": "uint256"
        }
      ],
      "name": "setMaxBBlocks",
      "outputs": [],
      "stateMutability": "nonpayable",
      "type": "function"
    },
    {
      "inputs": [
        {
          "internalType": "uint256",
          "name": "bblockId",
          "type": "uint256"
        },
        {
          "internalType": "string",
          "name": "URI",
          "type": "string"
        }
      ],
      "name": "setTokenURI",
      "outputs": [],
      "stateMutability": "nonpayable",
      "type": "function"
    },
    {
      "inputs": [
        {
          "internalType": "bytes4",
          "name": "interfaceId",
          "type": "bytes4"
        }
      ],
      "name": "supportsInterface",
      "outputs": [
        {
          "internalType": "bool",
          "name": "",
          "type": "bool"
        }
      ],
      "stateMutability": "view",
      "type": "function"
    },
    {
      "inputs": [],
      "name": "symbol",
      "outputs": [
        {
          "internalType": "string",
          "name": "",
          "type": "string"
        }
      ],
      "stateMutability": "view",
      "type": "function"
    },
    {
      "inputs": [
        {
          "internalType": "uint256",
          "name": "tokenId",
          "type": "uint256"
        }
      ],
      "name": "tokenURI",
      "outputs": [
        {
          "internalType": "string",
          "name": "",
          "type": "string"
        }
      ],
      "stateMutability": "view",
      "type": "function"
    },
    {
      "inputs": [
        {
          "internalType": "address",
          "name": "from",
          "type": "address"
        },
        {
          "internalType": "address",
          "name": "to",
          "type": "address"
        },
        {
          "internalType": "uint256",
          "name": "tokenId",
          "type": "uint256"
        }
      ],
      "name": "transferFrom",
      "outputs": [],
      "stateMutability": "nonpayable",
      "type": "function"
    }
  ],
  "bytecode": "0x60806040526101f4600955610190600a55600b805460ff191660011790553480156200002a57600080fd5b50604080518082018252600d81526c42756c6c6574696e426c6f636b60981b60208083019182528351808501909452600484526342424c4b60e01b9084015281519192916200007c91600091620000ad565b50805162000092906001906020840190620000ad565b5050600880546001600160a01b031916331790555062000190565b828054620000bb9062000153565b90600052602060002090601f016020900481019282620000df57600085556200012a565b82601f10620000fa57805160ff19168380011785556200012a565b828001600101855582156200012a579182015b828111156200012a5782518255916020019190600101906200010d565b50620001389291506200013c565b5090565b5b808211156200013857600081556001016200013d565b600181811c908216806200016857607f821691505b602082108114156200018a57634e487b7160e01b600052602260045260246000fd5b50919050565b612b0180620001a06000396000f3fe6080604052600436106101ee5760003560e01c8063866b86761161010d578063c1b4eef2116100a0578063e985e9c51161006f578063e985e9c51461057e578063ef6e23391461059e578063f1ea3406146105b3578063f1edf705146105cb578063f6367c76146105e057600080fd5b8063c1b4eef2146104fb578063c87b56dd1461051b578063ca7ef2b01461053b578063e75722301461054e57600080fd5b80639cbf9e36116100dc5780639cbf9e3614610493578063a22cb4651461049b578063b88d4fde146104bb578063bd94b005146104db57600080fd5b8063866b8676146104115780638a0472fd14610431578063939562af1461045157806395d89b411461047e57600080fd5b806323b872dd116101855780636352211e116101545780636352211e146103a9578063646cafa4146103c9578063679b5c3a146103dc57806370a08231146103f157600080fd5b806323b872dd1461033f5780633e64a6961461035f5780633ee29b131461037457806342842e0e1461038957600080fd5b8063095ea7b3116101c1578063095ea7b3146102af57806311385e93146102d1578063162094c4146102ff5780631c0045341461031f57600080fd5b806301ffc9a7146101f357806306fdde0314610228578063081812fc1461024a57806308f6f6ad14610282575b600080fd5b3480156101ff57600080fd5b5061021361020e3660046126b0565b6105f3565b60405190151581526020015b60405180910390f35b34801561023457600080fd5b5061023d610645565b60405161021f919061289d565b34801561025657600080fd5b5061026a6102653660046126e8565b6106d7565b6040516001600160a01b03909116815260200161021f565b34801561028e57600080fd5b506102a261029d366004612544565b610764565b60405161021f919061284f565b3480156102bb57600080fd5b506102cf6102ca36600461266d565b610911565b005b3480156102dd57600080fd5b506102f16102ec3660046126e8565b610a27565b60405190815260200161021f565b34801561030b57600080fd5b506102cf61031a366004612700565b610a53565b34801561032b57600080fd5b506102cf61033a366004612696565b610a78565b34801561034b57600080fd5b506102cf61035a366004612590565b610aa2565b34801561036b57600080fd5b506009546102f1565b34801561038057600080fd5b506102f1610ad3565b34801561039557600080fd5b506102cf6103a4366004612590565b610ae3565b3480156103b557600080fd5b5061026a6103c43660046126e8565b610afe565b6102cf6103d73660046126e8565b610b75565b3480156103e857600080fd5b50600a546102f1565b3480156103fd57600080fd5b506102f161040c366004612544565b610ddd565b34801561041d57600080fd5b506102cf61042c3660046126e8565b610e64565b34801561043d57600080fd5b506102f161044c3660046126e8565b610e80565b34801561045d57600080fd5b5061047161046c3660046126e8565b610ee2565b60405161021f9190612953565b34801561048a57600080fd5b5061023d610f47565b6102f1610f56565b3480156104a757600080fd5b506102cf6104b6366004612644565b611077565b3480156104c757600080fd5b506102cf6104d63660046125cb565b61113c565b3480156104e757600080fd5b506102cf6104f63660046126e8565b611174565b34801561050757600080fd5b506102cf6105163660046126e8565b61129b565b34801561052757600080fd5b5061023d6105363660046126e8565b6112b7565b6102cf610549366004612700565b6112d4565b34801561055a57600080fd5b506102f16105693660046126e8565b6000908152600d602052604090206003015490565b34801561058a57600080fd5b5061021361059936600461255e565b611441565b3480156105aa57600080fd5b506102a261146f565b3480156105bf57600080fd5b50600b5460ff16610213565b3480156105d757600080fd5b506102a2611611565b6102cf6105ee366004612758565b611797565b60006001600160e01b031982166380ac58cd60e01b148061062457506001600160e01b03198216635b5e139f60e01b145b8061063f57506301ffc9a760e01b6001600160e01b03198316145b92915050565b60606000805461065490612a06565b80601f016020809104026020016040519081016040528092919081815260200182805461068090612a06565b80156106cd5780601f106106a2576101008083540402835291602001916106cd565b820191906000526020600020905b8154815290600101906020018083116106b057829003601f168201915b5050505050905090565b60006106e2826119c4565b6107485760405162461bcd60e51b815260206004820152602c60248201527f4552433732313a20617070726f76656420717565727920666f72206e6f6e657860448201526b34b9ba32b73a103a37b5b2b760a11b60648201526084015b60405180910390fd5b506000908152600460205260409020546001600160a01b031690565b6060600061077160075490565b905060008060005b838110156107c6576000818152600d60205260409020600201546001600160a01b03878116911614156107b4576107b1600184612961565b92505b806107be81612a41565b915050610779565b5060008267ffffffffffffffff8111156107f057634e487b7160e01b600052604160045260246000fd5b60405190808252806020026020018201604052801561082957816020015b6108166123cd565b81526020019060019003908161080e5790505b50905060005b84811015610907576000818152600d60205260409020600201546001600160a01b03888116911614156108f5576000818152600d6020908152604091829020825160a0810184528154815260018201546001600160a01b039081169382019390935260028201549092169282019290925260038201546060820152600482015460808201528351839291908590879081106108da57634e487b7160e01b600052603260045260246000fd5b60209081029190910101526108f0600186612961565b945050505b806108ff81612a41565b91505061082f565b5095945050505050565b600061091c82610afe565b9050806001600160a01b0316836001600160a01b0316141561098a5760405162461bcd60e51b815260206004820152602160248201527f4552433732313a20617070726f76616c20746f2063757272656e74206f776e656044820152603960f91b606482015260840161073f565b336001600160a01b03821614806109a657506109a68133611441565b610a185760405162461bcd60e51b815260206004820152603860248201527f4552433732313a20617070726f76652063616c6c6572206973206e6f74206f7760448201527f6e6572206e6f7220617070726f76656420666f7220616c6c0000000000000000606482015260840161073f565b610a2283836119e1565b505050565b600081610a32610ad3565b1015610a3d57600080fd5b506000908152600d602052604090206004015490565b6008546001600160a01b03163314610a6a57600080fd5b610a748282611a4f565b5050565b6008546001600160a01b03163314610a8f57600080fd5b600b805460ff1916911515919091179055565b610aac3382611ada565b610ac85760405162461bcd60e51b815260040161073f90612902565b610a22838383611ba4565b6000610ade60075490565b905090565b610a228383836040518060200160405280600081525061113c565b6000818152600260205260408120546001600160a01b03168061063f5760405162461bcd60e51b815260206004820152602960248201527f4552433732313a206f776e657220717565727920666f72206e6f6e657869737460448201526832b73a103a37b5b2b760b91b606482015260840161073f565b6000818152600d60205260409020600101546001600160a01b0316331415610bd75760405162461bcd60e51b815260206004820152601560248201527439b2b63632b91031b0b713ba10313290313abcb2b960591b604482015260640161073f565b6000818152600d60205260409020600101546001600160a01b0316610c345760405162461bcd60e51b815260206004820152601360248201527242426c6f636b206e6f7420666f722073616c6560681b604482015260640161073f565b6000818152600d6020526040902060030154600954610c539082612961565b3414610cb05760405162461bcd60e51b815260206004820152602660248201527f56616c7565206d75737420626520657175616c20746f207072696365202b206260448201526561736566656560d01b606482015260840161073f565b6000828152600d60205260408082206001015490516001600160a01b039091169183156108fc02918491818181858888f19350505050158015610cf7573d6000803e3d6000fd5b506040516323b872dd60e01b8152306004820181905233602483015260448201849052906323b872dd90606401600060405180830381600087803b158015610d3e57600080fd5b505af1158015610d52573d6000803e3d6000fd5b5050506000838152600d602052604090206001810180546001600160a01b03199081169091556002909101805490911633179055506008546001600160a01b03166108fc610d9f60095490565b6040518115909202916000818181858888f19350505050158015610dc7573d6000803e3d6000fd5b50506000908152600d6020526040812060040155565b60006001600160a01b038216610e485760405162461bcd60e51b815260206004820152602a60248201527f4552433732313a2062616c616e636520717565727920666f7220746865207a65604482015269726f206164647265737360b01b606482015260840161073f565b506001600160a01b031660009081526003602052604090205490565b6008546001600160a01b03163314610e7b57600080fd5b600a55565b6000610e8e600b5460ff1690565b15610ed557600954612710610ea5826103e861298d565b610eaf9190612979565b6000848152600d6020526040902060040154610ecb919061298d565b61063f9190612961565b60095461063f565b919050565b610eea6123cd565b506000908152600d6020908152604091829020825160a0810184528154815260018201546001600160a01b039081169382019390935260028201549092169282019290925260038201546060820152600490910154608082015290565b60606001805461065490612a06565b6000610f61600a5490565b610f69610ad3565b1115610fb75760405162461bcd60e51b815260206004820152601e60248201527f6d6178206c696d697420666f722042426c6f636b732072656163686564210000604482015260640161073f565b60095434146110085760405162461bcd60e51b815260206004820152601e60248201527f5072696365206d75737420626520657175616c20746f20626173656665650000604482015260640161073f565b6008546001600160a01b03166108fc61102060095490565b6040518115909202916000818181858888f19350505050158015611048573d6000803e3d6000fd5b50600061105460075490565b9050611064600780546001019055565b61106e3382611d44565b610edd81611e77565b6001600160a01b0382163314156110d05760405162461bcd60e51b815260206004820152601960248201527f4552433732313a20617070726f766520746f2063616c6c657200000000000000604482015260640161073f565b3360008181526005602090815260408083206001600160a01b03871680855290835292819020805460ff191686151590811790915590519081529192917f17307eab39ab6107e8899845ad3d59bd9653f200f220920489ca2b5937696c31910160405180910390a35050565b6111463383611ada565b6111625760405162461bcd60e51b815260040161073f90612902565b61116e84848484611f2c565b50505050565b6000818152600d60205260409020600101546001600160a01b031633146111eb5760405162461bcd60e51b815260206004820152602560248201527f596f7520617265206e6f74207468652073656c6c6572206f6620746869732042604482015264426c6f636b60d81b606482015260840161073f565b6000818152600d6020526040908190206001015490516323b872dd60e01b815230600482018190526001600160a01b039092166024820152604481018390526323b872dd90606401600060405180830381600087803b15801561124d57600080fd5b505af1158015611261573d6000803e3d6000fd5b505050600091825250600d602052604081206002810180546001600160a01b03199081163317909155600182018054909116905560030155565b6008546001600160a01b031633146112b257600080fd5b600955565b60606112c2826119c4565b6112cb57600080fd5b61063f82611f5f565b6112dd82610afe565b6001600160a01b0316336001600160a01b0316146113395760405162461bcd60e51b8152602060048201526019602482015278596f7520646f6e2774206f776e20746869732042426c6f636b60381b604482015260640161073f565b61134282610e80565b34146113905760405162461bcd60e51b815260206004820152601a60248201527f56616c7565206d75737420626520657175616c20746f20666565000000000000604482015260640161073f565b6008546001600160a01b03166108fc6113a884610e80565b6040518115909202916000818181858888f193505050501580156113d0573d6000803e3d6000fd5b506113db8282611a4f565b600c80546001810182556000919091527fdf6966c971051c3d54ec59162606531493a51404a002842f56009d7e5cf4a8c701829055600b5460ff1615610a74576000828152600d6020526040812060040180549161143883612a41565b91905055505050565b6001600160a01b03918216600090815260056020908152604080832093909416825291909152205460ff1690565b6060600061147c60075490565b905060008060005b838110156114cc576000818152600d60205260409020600101546001600160a01b0316156114ba576114b7600184612961565b92505b806114c481612a41565b915050611484565b5060008267ffffffffffffffff8111156114f657634e487b7160e01b600052604160045260246000fd5b60405190808252806020026020018201604052801561152f57816020015b61151c6123cd565b8152602001906001900390816115145790505b50905060005b84811015611608576000818152600d60205260409020600101546001600160a01b0316156115f6576000818152600d6020908152604091829020825160a0810184528154815260018201546001600160a01b039081169382019390935260028201549092169282019290925260038201546060820152600482015460808201528351839291908590879081106115db57634e487b7160e01b600052603260045260246000fd5b60209081029190910101526115f1600186612961565b945050505b8061160081612a41565b915050611535565b50949350505050565b600c805460609190600090819083101561163a57600c805461163391906129ac565b9050611640565b600c5492505b60008367ffffffffffffffff81111561166957634e487b7160e01b600052604160045260246000fd5b6040519080825280602002602001820160405280156116a257816020015b61168f6123cd565b8152602001906001900390816116875790505b50600c549091505b82811115611608576000600d81600c6116c46001866129ac565b815481106116e257634e487b7160e01b600052603260045260246000fd5b600091825260208083209091015483528281019390935260409182019020815160a0810183528154815260018201546001600160a01b03908116948201949094526002820154909316918301919091526003810154606083015260048101546080830152845190925084908790811061176b57634e487b7160e01b600052603260045260246000fd5b6020908102919091010152611781600186612961565b945050808061178f906129ef565b9150506116aa565b6000828152600d60205260409020600101546001600160a01b0316156117ff5760405162461bcd60e51b815260206004820152601760248201527f42426c6f636b20616c726561647920666f722073616c65000000000000000000604482015260640161073f565b61180882610afe565b6001600160a01b0316336001600160a01b0316146118645760405162461bcd60e51b8152602060048201526019602482015278596f7520646f6e2774206f776e20746869732042426c6f636b60381b604482015260640161073f565b600081116118b45760405162461bcd60e51b815260206004820152601c60248201527f5072696365206d757374206265206174206c6561737420312077656900000000604482015260640161073f565b60095434146119055760405162461bcd60e51b815260206004820152601e60248201527f5072696365206d75737420626520657175616c20746f20626173656665650000604482015260640161073f565b6008546040516001600160a01b03909116903480156108fc02916000818181858888f1935050505015801561193e573d6000803e3d6000fd5b5061194a333084610aa2565b6000828152600d6020908152604091829020600281018054306001600160a01b031991821617909155600182018054339216821790556003909101849055825190815290810183905283917fa29262303591d48ce94646a46b652916ce782073349bb5dc261ac4c5237d9397910160405180910390a25050565b6000908152600260205260409020546001600160a01b0316151590565b600081815260046020526040902080546001600160a01b0319166001600160a01b0384169081179091558190611a1682610afe565b6001600160a01b03167f8c5be1e5ebec7d5bd14f71427d1e84f3dd0314c0f7b2291e5b200ac8c7c3b92560405160405180910390a45050565b611a58826119c4565b611abb5760405162461bcd60e51b815260206004820152602e60248201527f45524337323155524953746f726167653a2055524920736574206f66206e6f6e60448201526d32bc34b9ba32b73a103a37b5b2b760911b606482015260840161073f565b60008281526006602090815260409091208251610a229284019061240e565b6000611ae5826119c4565b611b465760405162461bcd60e51b815260206004820152602c60248201527f4552433732313a206f70657261746f7220717565727920666f72206e6f6e657860448201526b34b9ba32b73a103a37b5b2b760a11b606482015260840161073f565b6000611b5183610afe565b9050806001600160a01b0316846001600160a01b03161480611b8c5750836001600160a01b0316611b81846106d7565b6001600160a01b0316145b80611b9c5750611b9c8185611441565b949350505050565b826001600160a01b0316611bb782610afe565b6001600160a01b031614611c1f5760405162461bcd60e51b815260206004820152602960248201527f4552433732313a207472616e73666572206f6620746f6b656e2074686174206960448201526839903737ba1037bbb760b91b606482015260840161073f565b6001600160a01b038216611c815760405162461bcd60e51b8152602060048201526024808201527f4552433732313a207472616e7366657220746f20746865207a65726f206164646044820152637265737360e01b606482015260840161073f565b611c8c6000826119e1565b6001600160a01b0383166000908152600360205260408120805460019290611cb59084906129ac565b90915550506001600160a01b0382166000908152600360205260408120805460019290611ce3908490612961565b909155505060008181526002602052604080822080546001600160a01b0319166001600160a01b0386811691821790925591518493918716917fddf252ad1be2c89b69c2b068fc378daa952ba7f163c4a11628f55a4df523b3ef91a4505050565b6001600160a01b038216611d9a5760405162461bcd60e51b815260206004820181905260248201527f4552433732313a206d696e7420746f20746865207a65726f2061646472657373604482015260640161073f565b611da3816119c4565b15611df05760405162461bcd60e51b815260206004820152601c60248201527f4552433732313a20746f6b656e20616c7265616479206d696e74656400000000604482015260640161073f565b6001600160a01b0382166000908152600360205260408120805460019290611e19908490612961565b909155505060008181526002602052604080822080546001600160a01b0319166001600160a01b03861690811790915590518392907fddf252ad1be2c89b69c2b068fc378daa952ba7f163c4a11628f55a4df523b3ef908290a45050565b6040805160a08101825282815260006020808301828152338486018181526060860185815260808701868152898752600d8652958890209651875592516001870180546001600160a01b03199081166001600160a01b039384161790915591516002880180549093169116179055905160038501559151600490930192909255915191825282917f1f9af20a3a50c8208cb866dbb0a950091532ab6831c8a34dd3d8951f1bad3c74910160405180910390a250565b611f37848484611ba4565b611f43848484846120ce565b61116e5760405162461bcd60e51b815260040161073f906128b0565b6060611f6a826119c4565b611fd05760405162461bcd60e51b815260206004820152603160248201527f45524337323155524953746f726167653a2055524920717565727920666f72206044820152703737b732bc34b9ba32b73a103a37b5b2b760791b606482015260840161073f565b60008281526006602052604081208054611fe990612a06565b80601f016020809104026020016040519081016040528092919081815260200182805461201590612a06565b80156120625780601f1061203757610100808354040283529160200191612062565b820191906000526020600020905b81548152906001019060200180831161204557829003601f168201915b50505050509050600061208060408051602081019091526000815290565b9050805160001415612093575092915050565b8151156120c55780826040516020016120ad9291906127e3565b60405160208183030381529060405292505050919050565b611b9c846121db565b60006001600160a01b0384163b156121d057604051630a85bd0160e11b81526001600160a01b0385169063150b7a0290612112903390899088908890600401612812565b602060405180830381600087803b15801561212c57600080fd5b505af192505050801561215c575060408051601f3d908101601f19168201909252612159918101906126cc565b60015b6121b6573d80801561218a576040519150601f19603f3d011682016040523d82523d6000602084013e61218f565b606091505b5080516121ae5760405162461bcd60e51b815260040161073f906128b0565b805181602001fd5b6001600160e01b031916630a85bd0160e11b149050611b9c565b506001949350505050565b60606121e6826119c4565b61224a5760405162461bcd60e51b815260206004820152602f60248201527f4552433732314d657461646174613a2055524920717565727920666f72206e6f60448201526e3732bc34b9ba32b73a103a37b5b2b760891b606482015260840161073f565b600061226160408051602081019091526000815290565b9050600081511161228157604051806020016040528060008152506122ac565b8061228b846122b3565b60405160200161229c9291906127e3565b6040516020818303038152906040525b9392505050565b6060816122d75750506040805180820190915260018152600360fc1b602082015290565b8160005b811561230157806122eb81612a41565b91506122fa9050600a83612979565b91506122db565b60008167ffffffffffffffff81111561232a57634e487b7160e01b600052604160045260246000fd5b6040519080825280601f01601f191660200182016040528015612354576020820181803683370190505b5090505b8415611b9c576123696001836129ac565b9150612376600a86612a5c565b612381906030612961565b60f81b8183815181106123a457634e487b7160e01b600052603260045260246000fd5b60200101906001600160f81b031916908160001a9053506123c6600a86612979565b9450612358565b6040518060a001604052806000815260200160006001600160a01b0316815260200160006001600160a01b0316815260200160008152602001600081525090565b82805461241a90612a06565b90600052602060002090601f01602090048101928261243c5760008555612482565b82601f1061245557805160ff1916838001178555612482565b82800160010185558215612482579182015b82811115612482578251825591602001919060010190612467565b5061248e929150612492565b5090565b5b8082111561248e5760008155600101612493565b600067ffffffffffffffff808411156124c2576124c2612a9c565b604051601f8501601f19908116603f011681019082821181831017156124ea576124ea612a9c565b8160405280935085815286868601111561250357600080fd5b858560208301376000602087830101525050509392505050565b80356001600160a01b0381168114610edd57600080fd5b80358015158114610edd57600080fd5b600060208284031215612555578081fd5b6122ac8261251d565b60008060408385031215612570578081fd5b6125798361251d565b91506125876020840161251d565b90509250929050565b6000806000606084860312156125a4578081fd5b6125ad8461251d565b92506125bb6020850161251d565b9150604084013590509250925092565b600080600080608085870312156125e0578081fd5b6125e98561251d565b93506125f76020860161251d565b925060408501359150606085013567ffffffffffffffff811115612619578182fd5b8501601f81018713612629578182fd5b612638878235602084016124a7565b91505092959194509250565b60008060408385031215612656578182fd5b61265f8361251d565b915061258760208401612534565b6000806040838503121561267f578182fd5b6126888361251d565b946020939093013593505050565b6000602082840312156126a7578081fd5b6122ac82612534565b6000602082840312156126c1578081fd5b81356122ac81612ab2565b6000602082840312156126dd578081fd5b81516122ac81612ab2565b6000602082840312156126f9578081fd5b5035919050565b60008060408385031215612712578182fd5b82359150602083013567ffffffffffffffff81111561272f578182fd5b8301601f8101851361273f578182fd5b61274e858235602084016124a7565b9150509250929050565b6000806040838503121561276a578182fd5b50508035926020909101359150565b600081518084526127918160208601602086016129c3565b601f01601f19169290920160200192915050565b805182526020808201516001600160a01b03908116918401919091526040808301519091169083015260608082015190830152608090810151910152565b600083516127f58184602088016129c3565b8351908301906128098183602088016129c3565b01949350505050565b6001600160a01b038581168252841660208201526040810183905260806060820181905260009061284590830184612779565b9695505050505050565b6020808252825182820181905260009190848201906040850190845b818110156128915761287e8385516127a5565b9284019260a0929092019160010161286b565b50909695505050505050565b6020815260006122ac6020830184612779565b60208082526032908201527f4552433732313a207472616e7366657220746f206e6f6e20455243373231526560408201527131b2b4bb32b91034b6b83632b6b2b73a32b960711b606082015260800190565b60208082526031908201527f4552433732313a207472616e736665722063616c6c6572206973206e6f74206f6040820152701ddb995c881b9bdc88185c1c1c9bdd9959607a1b606082015260800190565b60a0810161063f82846127a5565b6000821982111561297457612974612a70565b500190565b60008261298857612988612a86565b500490565b60008160001904831182151516156129a7576129a7612a70565b500290565b6000828210156129be576129be612a70565b500390565b60005b838110156129de5781810151838201526020016129c6565b8381111561116e5750506000910152565b6000816129fe576129fe612a70565b506000190190565b600181811c90821680612a1a57607f821691505b60208210811415612a3b57634e487b7160e01b600052602260045260246000fd5b50919050565b6000600019821415612a5557612a55612a70565b5060010190565b600082612a6b57612a6b612a86565b500690565b634e487b7160e01b600052601160045260246000fd5b634e487b7160e01b600052601260045260246000fd5b634e487b7160e01b600052604160045260246000fd5b6001600160e01b031981168114612ac857600080fd5b5056fea264697066735822122003b5190e54ab4e7c73274197e28cd57ca9531dcb454bf3f2c4d28e40c624d11564736f6c63430008040033",
  "linkReferences": {},
  "deployedLinkReferences": {}
}