{
  "_format": "hh-sol-artifact-1",
  "contractName": "YourContract",
  "sourceName": "contracts/YourContract.sol",
  "abi": [
    {
      "inputs": [],
      "stateMutability": "nonpayable",
      "type": "constructor"
    },
    {
      "inputs": [
        {
          "internalType": "uint256",
          "name": "code",
          "type": "uint256"
        },
        {
          "internalType": "string",
          "name": "message",
          "type": "string"
        }
      ],
      "name": "EmptyPurposeError",
      "type": "error"
    },
    {
      "anonymous": false,
      "inputs": [
        {
          "indexed": true,
          "internalType": "address",
          "name": "owner",
          "type": "address"
        },
        {
          "indexed": true,
          "internalType": "address",
          "name": "approved",
          "type": "address"
        },
        {
          "indexed": true,
          "internalType": "uint256",
          "name": "tokenId",
          "type": "uint256"
        }
      ],
      "name": "Approval",
      "type": "event"
    },
    {
      "anonymous": false,
      "inputs": [
        {
          "indexed": true,
          "internalType": "address",
          "name": "owner",
          "type": "address"
        },
        {
          "indexed": true,
          "internalType": "address",
          "name": "operator",
          "type": "address"
        },
        {
          "indexed": false,
          "internalType": "bool",
          "name": "approved",
          "type": "bool"
        }
      ],
      "name": "ApprovalForAll",
      "type": "event"
    },
    {
      "anonymous": false,
      "inputs": [
        {
          "indexed": false,
          "internalType": "address",
          "name": "sender",
          "type": "address"
        },
        {
          "indexed": false,
          "internalType": "uint256",
          "name": "tokenId",
          "type": "uint256"
        }
      ],
      "name": "Mint",
      "type": "event"
    },
    {
      "anonymous": false,
      "inputs": [
        {
          "indexed": true,
          "internalType": "address",
          "name": "previousOwner",
          "type": "address"
        },
        {
          "indexed": true,
          "internalType": "address",
          "name": "newOwner",
          "type": "address"
        }
      ],
      "name": "OwnershipTransferred",
      "type": "event"
    },
    {
      "anonymous": false,
      "inputs": [
        {
          "indexed": false,
          "internalType": "address",
          "name": "account",
          "type": "address"
        }
      ],
      "name": "Paused",
      "type": "event"
    },
    {
      "anonymous": false,
      "inputs": [
        {
          "indexed": false,
          "internalType": "address",
          "name": "sender",
          "type": "address"
        },
        {
          "indexed": false,
          "internalType": "string",
          "name": "purpose",
          "type": "string"
        }
      ],
      "name": "SetPurpose",
      "type": "event"
    },
    {
      "anonymous": false,
      "inputs": [
        {
          "indexed": false,
          "internalType": "address",
          "name": "sender",
          "type": "address"
        },
        {
          "indexed": false,
          "internalType": "uint256",
          "name": "tokenId",
          "type": "uint256"
        },
        {
          "indexed": false,
          "internalType": "string",
          "name": "tokenURI",
          "type": "string"
        }
      ],
      "name": "SetTokenURI",
      "type": "event"
    },
    {
      "anonymous": false,
      "inputs": [
        {
          "indexed": true,
          "internalType": "address",
          "name": "from",
          "type": "address"
        },
        {
          "indexed": true,
          "internalType": "address",
          "name": "to",
          "type": "address"
        },
        {
          "indexed": true,
          "internalType": "uint256",
          "name": "tokenId",
          "type": "uint256"
        }
      ],
      "name": "Transfer",
      "type": "event"
    },
    {
      "anonymous": false,
      "inputs": [
        {
          "indexed": false,
          "internalType": "address",
          "name": "account",
          "type": "address"
        }
      ],
      "name": "Unpaused",
      "type": "event"
    },
    {
      "inputs": [
        {
          "internalType": "address",
          "name": "to",
          "type": "address"
        },
        {
          "internalType": "uint256",
          "name": "tokenId",
          "type": "uint256"
        }
      ],
      "name": "approve",
      "outputs": [],
      "stateMutability": "nonpayable",
      "type": "function"
    },
    {
      "inputs": [
        {
          "internalType": "address",
          "name": "owner",
          "type": "address"
        }
      ],
      "name": "balanceOf",
      "outputs": [
        {
          "internalType": "uint256",
          "name": "",
          "type": "uint256"
        }
      ],
      "stateMutability": "view",
      "type": "function"
    },
    {
      "inputs": [
        {
          "internalType": "uint256",
          "name": "tokenId",
          "type": "uint256"
        }
      ],
      "name": "getApproved",
      "outputs": [
        {
          "internalType": "address",
          "name": "",
          "type": "address"
        }
      ],
      "stateMutability": "view",
      "type": "function"
    },
    {
      "inputs": [
        {
          "internalType": "address",
          "name": "owner",
          "type": "address"
        },
        {
          "internalType": "address",
          "name": "operator",
          "type": "address"
        }
      ],
      "name": "isApprovedForAll",
      "outputs": [
        {
          "internalType": "bool",
          "name": "",
          "type": "bool"
        }
      ],
      "stateMutability": "view",
      "type": "function"
    },
    {
      "inputs": [],
      "name": "mint",
      "outputs": [],
      "stateMutability": "nonpayable",
      "type": "function"
    },
    {
      "inputs": [],
      "name": "name",
      "outputs": [
        {
          "internalType": "string",
          "name": "",
          "type": "string"
        }
      ],
      "stateMutability": "view",
      "type": "function"
    },
    {
      "inputs": [],
      "name": "owner",
      "outputs": [
        {
          "internalType": "address",
          "name": "",
          "type": "address"
        }
      ],
      "stateMutability": "view",
      "type": "function"
    },
    {
      "inputs": [
        {
          "internalType": "uint256",
          "name": "tokenId",
          "type": "uint256"
        }
      ],
      "name": "ownerOf",
      "outputs": [
        {
          "internalType": "address",
          "name": "",
          "type": "address"
        }
      ],
      "stateMutability": "view",
      "type": "function"
    },
    {
      "inputs": [],
      "name": "pause",
      "outputs": [],
      "stateMutability": "nonpayable",
      "type": "function"
    },
    {
      "inputs": [],
      "name": "paused",
      "outputs": [
        {
          "internalType": "bool",
          "name": "",
          "type": "bool"
        }
      ],
      "stateMutability": "view",
      "type": "function"
    },
    {
      "inputs": [],
      "name": "purpose",
      "outputs": [
        {
          "internalType": "string",
          "name": "",
          "type": "string"
        }
      ],
      "stateMutability": "view",
      "type": "function"
    },
    {
      "inputs": [],
      "name": "renounceOwnership",
      "outputs": [],
      "stateMutability": "nonpayable",
      "type": "function"
    },
    {
      "inputs": [
        {
          "internalType": "address",
          "name": "to",
          "type": "address"
        }
      ],
      "name": "safeMint",
      "outputs": [],
      "stateMutability": "nonpayable",
      "type": "function"
    },
    {
      "inputs": [
        {
          "internalType": "address",
          "name": "from",
          "type": "address"
        },
        {
          "internalType": "address",
          "name": "to",
          "type": "address"
        },
        {
          "internalType": "uint256",
          "name": "tokenId",
          "type": "uint256"
        }
      ],
      "name": "safeTransferFrom",
      "outputs": [],
      "stateMutability": "nonpayable",
      "type": "function"
    },
    {
      "inputs": [
        {
          "internalType": "address",
          "name": "from",
          "type": "address"
        },
        {
          "internalType": "address",
          "name": "to",
          "type": "address"
        },
        {
          "internalType": "uint256",
          "name": "tokenId",
          "type": "uint256"
        },
        {
          "internalType": "bytes",
          "name": "_data",
          "type": "bytes"
        }
      ],
      "name": "safeTransferFrom",
      "outputs": [],
      "stateMutability": "nonpayable",
      "type": "function"
    },
    {
      "inputs": [
        {
          "internalType": "address",
          "name": "operator",
          "type": "address"
        },
        {
          "internalType": "bool",
          "name": "approved",
          "type": "bool"
        }
      ],
      "name": "setApprovalForAll",
      "outputs": [],
      "stateMutability": "nonpayable",
      "type": "function"
    },
    {
      "inputs": [
        {
          "internalType": "string",
          "name": "newPurpose",
          "type": "string"
        }
      ],
      "name": "setPurpose",
      "outputs": [],
      "stateMutability": "nonpayable",
      "type": "function"
    },
    {
      "inputs": [
        {
          "internalType": "uint256",
          "name": "tokenId",
          "type": "uint256"
        },
        {
          "internalType": "string",
          "name": "_tokenURI",
          "type": "string"
        }
      ],
      "name": "setTokenURI",
      "outputs": [],
      "stateMutability": "nonpayable",
      "type": "function"
    },
    {
      "inputs": [
        {
          "internalType": "bytes4",
          "name": "interfaceId",
          "type": "bytes4"
        }
      ],
      "name": "supportsInterface",
      "outputs": [
        {
          "internalType": "bool",
          "name": "",
          "type": "bool"
        }
      ],
      "stateMutability": "view",
      "type": "function"
    },
    {
      "inputs": [],
      "name": "symbol",
      "outputs": [
        {
          "internalType": "string",
          "name": "",
          "type": "string"
        }
      ],
      "stateMutability": "view",
      "type": "function"
    },
    {
      "inputs": [
        {
          "internalType": "uint256",
          "name": "index",
          "type": "uint256"
        }
      ],
      "name": "tokenByIndex",
      "outputs": [
        {
          "internalType": "uint256",
          "name": "",
          "type": "uint256"
        }
      ],
      "stateMutability": "view",
      "type": "function"
    },
    {
      "inputs": [
        {
          "internalType": "address",
          "name": "owner",
          "type": "address"
        },
        {
          "internalType": "uint256",
          "name": "index",
          "type": "uint256"
        }
      ],
      "name": "tokenOfOwnerByIndex",
      "outputs": [
        {
          "internalType": "uint256",
          "name": "",
          "type": "uint256"
        }
      ],
      "stateMutability": "view",
      "type": "function"
    },
    {
      "inputs": [
        {
          "internalType": "uint256",
          "name": "tokenId",
          "type": "uint256"
        }
      ],
      "name": "tokenURI",
      "outputs": [
        {
          "internalType": "string",
          "name": "",
          "type": "string"
        }
      ],
      "stateMutability": "view",
      "type": "function"
    },
    {
      "inputs": [],
      "name": "totalSupply",
      "outputs": [
        {
          "internalType": "uint256",
          "name": "",
          "type": "uint256"
        }
      ],
      "stateMutability": "view",
      "type": "function"
    },
    {
      "inputs": [
        {
          "internalType": "address",
          "name": "from",
          "type": "address"
        },
        {
          "internalType": "address",
          "name": "to",
          "type": "address"
        },
        {
          "internalType": "uint256",
          "name": "tokenId",
          "type": "uint256"
        }
      ],
      "name": "transferFrom",
      "outputs": [],
      "stateMutability": "nonpayable",
      "type": "function"
    },
    {
      "inputs": [
        {
          "internalType": "address",
          "name": "newOwner",
          "type": "address"
        }
      ],
      "name": "transferOwnership",
      "outputs": [],
      "stateMutability": "nonpayable",
      "type": "function"
    },
    {
      "inputs": [],
      "name": "unpause",
      "outputs": [],
      "stateMutability": "nonpayable",
      "type": "function"
    }
  ],
  "bytecode": "0x60c0604052601560808190527f42756c6c6574696e20426c6f636b2053797374656d000000000000000000000060a09081526200004091600d91906200012e565b503480156200004e57600080fd5b50604080518082018252600d81526c42756c6c6574696e426c6f636b60981b60208083019182528351808501909452600484526342424c4b60e01b908401528151919291620000a0916000916200012e565b508051620000b69060019060208401906200012e565b5050600b805460ff1916905550620000ce33620000d4565b62000211565b600b80546001600160a01b03838116610100818102610100600160a81b031985161790945560405193909204169182907f8be0079c531659141344cd1fd0a4f28419497f9722a3daafe3b4186f6b6457e090600090a35050565b8280546200013c90620001d4565b90600052602060002090601f016020900481019282620001605760008555620001ab565b82601f106200017b57805160ff1916838001178555620001ab565b82800160010185558215620001ab579182015b82811115620001ab5782518255916020019190600101906200018e565b50620001b9929150620001bd565b5090565b5b80821115620001b95760008155600101620001be565b600181811c90821680620001e957607f821691505b602082108114156200020b57634e487b7160e01b600052602260045260246000fd5b50919050565b6124a280620002216000396000f3fe608060405234801561001057600080fd5b50600436106101a95760003560e01c80635c975abb116100f957806395d89b4111610097578063c87b56dd11610071578063c87b56dd1461034c578063e985e9c51461035f578063eb68757f1461039b578063f2fde38b146103ae57600080fd5b806395d89b411461031e578063a22cb46514610326578063b88d4fde1461033957600080fd5b806370a08231116100d357806370a08231146102e5578063715018a6146102f85780638456cb59146103005780638da5cb5b1461030857600080fd5b80635c975abb146102bf5780636352211e146102ca57806370740aab146102dd57600080fd5b806318160ddd116101665780633f4ba83a116101405780633f4ba83a1461027e57806340d097c31461028657806342842e0e146102995780634f6ccce7146102ac57600080fd5b806318160ddd1461024657806323b872dd146102585780632f745c591461026b57600080fd5b806301ffc9a7146101ae57806306fdde03146101d6578063081812fc146101eb578063095ea7b3146102165780631249c58b1461022b578063162094c414610233575b600080fd5b6101c16101bc366004611fd3565b6103c1565b60405190151581526020015b60405180910390f35b6101de6103d2565b6040516101cd9190612250565b6101fe6101f936600461203e565b610464565b6040516001600160a01b0390911681526020016101cd565b610229610224366004611faa565b6104f1565b005b610229610607565b610229610241366004612056565b610669565b6008545b6040519081526020016101cd565b610229610266366004611ebc565b610714565b61024a610279366004611faa565b610745565b610229610758565b610229610294366004611e70565b610792565b6102296102a7366004611ebc565b6107e5565b61024a6102ba36600461203e565b610800565b600b5460ff166101c1565b6101fe6102d836600461203e565b6108a1565b6101de610918565b61024a6102f3366004611e70565b6109a6565b610229610a2d565b610229610a67565b600b5461010090046001600160a01b03166101fe565b6101de610a9f565b610229610334366004611f70565b610aae565b610229610347366004611ef7565b610b73565b6101de61035a36600461203e565b610bab565b6101c161036d366004611e8a565b6001600160a01b03918216600090815260056020908152604080832093909416825291909152205460ff1690565b6102296103a936600461200b565b610bb6565b6102296103bc366004611e70565b610d0f565b60006103cc82610dad565b92915050565b6060600080546103e1906123aa565b80601f016020809104026020016040519081016040528092919081815260200182805461040d906123aa565b801561045a5780601f1061042f5761010080835404028352916020019161045a565b820191906000526020600020905b81548152906001019060200180831161043d57829003601f168201915b5050505050905090565b600061046f82610dd2565b6104d55760405162461bcd60e51b815260206004820152602c60248201527f4552433732313a20617070726f76656420717565727920666f72206e6f6e657860448201526b34b9ba32b73a103a37b5b2b760a11b60648201526084015b60405180910390fd5b506000908152600460205260409020546001600160a01b031690565b60006104fc826108a1565b9050806001600160a01b0316836001600160a01b0316141561056a5760405162461bcd60e51b815260206004820152602160248201527f4552433732313a20617070726f76616c20746f2063757272656e74206f776e656044820152603960f91b60648201526084016104cc565b336001600160a01b03821614806105865750610586813361036d565b6105f85760405162461bcd60e51b815260206004820152603860248201527f4552433732313a20617070726f76652063616c6c6572206973206e6f74206f7760448201527f6e6572206e6f7220617070726f76656420666f7220616c6c000000000000000060648201526084016104cc565b6106028383610def565b505050565b6000610612600c5490565b905061061e3382610e5d565b61062c600c80546001019055565b60408051338152602081018390527f0f6798a560793a54c3bcfe86a93cde1e73087d944c0ea20544137d412139688591015b60405180910390a150565b610672826108a1565b6001600160a01b0316336001600160a01b0316146106cb5760405162461bcd60e51b8152602060048201526016602482015275165bdd48191bdb89dd081bdddb881d1a1a5cc813919560521b60448201526064016104cc565b6106d58282610e7b565b7fdef0963a3da72a526e80f55b67c27d23c2d441ed62d5e6d7c4385ab9db115fd533838360405161070893929190612220565b60405180910390a15050565b61071e3382610f06565b61073a5760405162461bcd60e51b81526004016104cc906122ea565b610602838383610ff0565b6000610751838361119b565b9392505050565b600b546001600160a01b036101009091041633146107885760405162461bcd60e51b81526004016104cc906122b5565b610790611231565b565b600b546001600160a01b036101009091041633146107c25760405162461bcd60e51b81526004016104cc906122b5565b6107d4816107cf600c5490565b610e5d565b6107e2600c80546001019055565b50565b61060283838360405180602001604052806000815250610b73565b600061080b60085490565b821061086e5760405162461bcd60e51b815260206004820152602c60248201527f455243373231456e756d657261626c653a20676c6f62616c20696e646578206f60448201526b7574206f6620626f756e647360a01b60648201526084016104cc565b6008828154811061088f57634e487b7160e01b600052603260045260246000fd5b90600052602060002001549050919050565b6000818152600260205260408120546001600160a01b0316806103cc5760405162461bcd60e51b815260206004820152602960248201527f4552433732313a206f776e657220717565727920666f72206e6f6e657869737460448201526832b73a103a37b5b2b760b91b60648201526084016104cc565b600d8054610925906123aa565b80601f0160208091040260200160405190810160405280929190818152602001828054610951906123aa565b801561099e5780601f106109735761010080835404028352916020019161099e565b820191906000526020600020905b81548152906001019060200180831161098157829003601f168201915b505050505081565b60006001600160a01b038216610a115760405162461bcd60e51b815260206004820152602a60248201527f4552433732313a2062616c616e636520717565727920666f7220746865207a65604482015269726f206164647265737360b01b60648201526084016104cc565b506001600160a01b031660009081526003602052604090205490565b600b546001600160a01b03610100909104163314610a5d5760405162461bcd60e51b81526004016104cc906122b5565b61079060006112c4565b600b546001600160a01b03610100909104163314610a975760405162461bcd60e51b81526004016104cc906122b5565b61079061131e565b6060600180546103e1906123aa565b6001600160a01b038216331415610b075760405162461bcd60e51b815260206004820152601960248201527f4552433732313a20617070726f766520746f2063616c6c65720000000000000060448201526064016104cc565b3360008181526005602090815260408083206001600160a01b03871680855290835292819020805460ff191686151590811790915590519081529192917f17307eab39ab6107e8899845ad3d59bd9653f200f220920489ca2b5937696c31910160405180910390a35050565b610b7d3383610f06565b610b995760405162461bcd60e51b81526004016104cc906122ea565b610ba584848484611399565b50505050565b60606103cc826113cc565b8051610c0e57604080516314f4648b60e31b8152600160048201526024810191909152601860448201527f507572706f73652063616e206e6f7420626520656d707479000000000000000060648201526084016104cc565b8051610c2190600d906020840190611d26565b50610cdd336040518060400160405280600e81526020016d73657420707572706f736520746f60901b815250600d8054610c5a906123aa565b80601f0160208091040260200160405190810160405280929190818152602001828054610c86906123aa565b8015610cd35780601f10610ca857610100808354040283529160200191610cd3565b820191906000526020600020905b815481529060010190602001808311610cb657829003601f168201915b505050505061153b565b7f6ea5d6383a120235c7728a9a6751672a8ac068e4ed34dcca2ee444182c1812de33600d60405161065e929190612169565b600b546001600160a01b03610100909104163314610d3f5760405162461bcd60e51b81526004016104cc906122b5565b6001600160a01b038116610da45760405162461bcd60e51b815260206004820152602660248201527f4f776e61626c653a206e6577206f776e657220697320746865207a65726f206160448201526564647265737360d01b60648201526084016104cc565b6107e2816112c4565b60006001600160e01b0319821663780e9d6360e01b14806103cc57506103cc82611582565b6000908152600260205260409020546001600160a01b0316151590565b600081815260046020526040902080546001600160a01b0319166001600160a01b0384169081179091558190610e24826108a1565b6001600160a01b03167f8c5be1e5ebec7d5bd14f71427d1e84f3dd0314c0f7b2291e5b200ac8c7c3b92560405160405180910390a45050565b610e778282604051806020016040528060008152506115d2565b5050565b610e8482610dd2565b610ee75760405162461bcd60e51b815260206004820152602e60248201527f45524337323155524953746f726167653a2055524920736574206f66206e6f6e60448201526d32bc34b9ba32b73a103a37b5b2b760911b60648201526084016104cc565b6000828152600a60209081526040909120825161060292840190611d26565b6000610f1182610dd2565b610f725760405162461bcd60e51b815260206004820152602c60248201527f4552433732313a206f70657261746f7220717565727920666f72206e6f6e657860448201526b34b9ba32b73a103a37b5b2b760a11b60648201526084016104cc565b6000610f7d836108a1565b9050806001600160a01b0316846001600160a01b03161480610fb85750836001600160a01b0316610fad84610464565b6001600160a01b0316145b80610fe857506001600160a01b0380821660009081526005602090815260408083209388168352929052205460ff165b949350505050565b826001600160a01b0316611003826108a1565b6001600160a01b03161461106b5760405162461bcd60e51b815260206004820152602960248201527f4552433732313a207472616e73666572206f6620746f6b656e2074686174206960448201526839903737ba1037bbb760b91b60648201526084016104cc565b6001600160a01b0382166110cd5760405162461bcd60e51b8152602060048201526024808201527f4552433732313a207472616e7366657220746f20746865207a65726f206164646044820152637265737360e01b60648201526084016104cc565b6110d8838383611605565b6110e3600082610def565b6001600160a01b038316600090815260036020526040812080546001929061110c908490612367565b90915550506001600160a01b038216600090815260036020526040812080546001929061113a90849061233b565b909155505060008181526002602052604080822080546001600160a01b0319166001600160a01b0386811691821790925591518493918716917fddf252ad1be2c89b69c2b068fc378daa952ba7f163c4a11628f55a4df523b3ef91a4505050565b60006111a6836109a6565b82106112085760405162461bcd60e51b815260206004820152602b60248201527f455243373231456e756d657261626c653a206f776e657220696e646578206f7560448201526a74206f6620626f756e647360a81b60648201526084016104cc565b506001600160a01b03919091166000908152600660209081526040808320938352929052205490565b600b5460ff1661127a5760405162461bcd60e51b815260206004820152601460248201527314185d5cd8589b194e881b9bdd081c185d5cd95960621b60448201526064016104cc565b600b805460ff191690557f5db9ee0a495bf2e6ff9c91a7834c1ba4fdd244a5e8aa4e537bd38aeae4b073aa335b6040516001600160a01b03909116815260200160405180910390a1565b600b80546001600160a01b03838116610100818102610100600160a81b031985161790945560405193909204169182907f8be0079c531659141344cd1fd0a4f28419497f9722a3daafe3b4186f6b6457e090600090a35050565b600b5460ff16156113645760405162461bcd60e51b815260206004820152601060248201526f14185d5cd8589b194e881c185d5cd95960821b60448201526064016104cc565b600b805460ff191660011790557f62e78cea01bee320cd4e420270b5ea74000d11b0c9f74754ebdbfc544b05a2586112a73390565b6113a4848484610ff0565b6113b084848484611656565b610ba55760405162461bcd60e51b81526004016104cc90612263565b60606113d782610dd2565b61143d5760405162461bcd60e51b815260206004820152603160248201527f45524337323155524953746f726167653a2055524920717565727920666f72206044820152703737b732bc34b9ba32b73a103a37b5b2b760791b60648201526084016104cc565b6000828152600a602052604081208054611456906123aa565b80601f0160208091040260200160405190810160405280929190818152602001828054611482906123aa565b80156114cf5780601f106114a4576101008083540402835291602001916114cf565b820191906000526020600020905b8154815290600101906020018083116114b257829003601f168201915b5050505050905060006114ed60408051602081019091526000815290565b9050805160001415611500575092915050565b81511561153257808260405160200161151a9291906120c7565b60405160208183030381529060405292505050919050565b610fe884611763565b61060283838360405160240161155393929190612133565b60408051601f198184030181529190526020810180516001600160e01b031663fb77226560e01b17905261183a565b60006001600160e01b031982166380ac58cd60e01b14806115b357506001600160e01b03198216635b5e139f60e01b145b806103cc57506301ffc9a760e01b6001600160e01b03198316146103cc565b6115dc838361185b565b6115e96000848484611656565b6106025760405162461bcd60e51b81526004016104cc90612263565b600b5460ff161561164b5760405162461bcd60e51b815260206004820152601060248201526f14185d5cd8589b194e881c185d5cd95960821b60448201526064016104cc565b61060283838361199a565b60006001600160a01b0384163b1561175857604051630a85bd0160e11b81526001600160a01b0385169063150b7a029061169a9033908990889088906004016120f6565b602060405180830381600087803b1580156116b457600080fd5b505af19250505080156116e4575060408051601f3d908101601f191682019092526116e191810190611fef565b60015b61173e573d808015611712576040519150601f19603f3d011682016040523d82523d6000602084013e611717565b606091505b5080516117365760405162461bcd60e51b81526004016104cc90612263565b805181602001fd5b6001600160e01b031916630a85bd0160e11b149050610fe8565b506001949350505050565b606061176e82610dd2565b6117d25760405162461bcd60e51b815260206004820152602f60248201527f4552433732314d657461646174613a2055524920717565727920666f72206e6f60448201526e3732bc34b9ba32b73a103a37b5b2b760891b60648201526084016104cc565b60006117e960408051602081019091526000815290565b905060008151116118095760405180602001604052806000815250610751565b8061181384611a52565b6040516020016118249291906120c7565b6040516020818303038152906040529392505050565b80516a636f6e736f6c652e6c6f67602083016000808483855afa5050505050565b6001600160a01b0382166118b15760405162461bcd60e51b815260206004820181905260248201527f4552433732313a206d696e7420746f20746865207a65726f206164647265737360448201526064016104cc565b6118ba81610dd2565b156119075760405162461bcd60e51b815260206004820152601c60248201527f4552433732313a20746f6b656e20616c7265616479206d696e7465640000000060448201526064016104cc565b61191360008383611605565b6001600160a01b038216600090815260036020526040812080546001929061193c90849061233b565b909155505060008181526002602052604080822080546001600160a01b0319166001600160a01b03861690811790915590518392907fddf252ad1be2c89b69c2b068fc378daa952ba7f163c4a11628f55a4df523b3ef908290a45050565b6001600160a01b0383166119f5576119f081600880546000838152600960205260408120829055600182018355919091527ff3f7a9fe364faab93b216da50a3214154f22a0a2b415b23a84c8169e8b636ee30155565b611a18565b816001600160a01b0316836001600160a01b031614611a1857611a188382611b6c565b6001600160a01b038216611a2f5761060281611c09565b826001600160a01b0316826001600160a01b031614610602576106028282611ce2565b606081611a765750506040805180820190915260018152600360fc1b602082015290565b8160005b8115611aa05780611a8a816123e5565b9150611a999050600a83612353565b9150611a7a565b60008167ffffffffffffffff811115611ac957634e487b7160e01b600052604160045260246000fd5b6040519080825280601f01601f191660200182016040528015611af3576020820181803683370190505b5090505b8415610fe857611b08600183612367565b9150611b15600a86612400565b611b2090603061233b565b60f81b818381518110611b4357634e487b7160e01b600052603260045260246000fd5b60200101906001600160f81b031916908160001a905350611b65600a86612353565b9450611af7565b60006001611b79846109a6565b611b839190612367565b600083815260076020526040902054909150808214611bd6576001600160a01b03841660009081526006602090815260408083208584528252808320548484528184208190558352600790915290208190555b5060009182526007602090815260408084208490556001600160a01b039094168352600681528383209183525290812055565b600854600090611c1b90600190612367565b60008381526009602052604081205460088054939450909284908110611c5157634e487b7160e01b600052603260045260246000fd5b906000526020600020015490508060088381548110611c8057634e487b7160e01b600052603260045260246000fd5b6000918252602080832090910192909255828152600990915260408082208490558582528120556008805480611cc657634e487b7160e01b600052603160045260246000fd5b6001900381819060005260206000200160009055905550505050565b6000611ced836109a6565b6001600160a01b039093166000908152600660209081526040808320868452825280832085905593825260079052919091209190915550565b828054611d32906123aa565b90600052602060002090601f016020900481019282611d545760008555611d9a565b82601f10611d6d57805160ff1916838001178555611d9a565b82800160010185558215611d9a579182015b82811115611d9a578251825591602001919060010190611d7f565b50611da6929150611daa565b5090565b5b80821115611da65760008155600101611dab565b600067ffffffffffffffff80841115611dda57611dda612440565b604051601f8501601f19908116603f01168101908282118183101715611e0257611e02612440565b81604052809350858152868686011115611e1b57600080fd5b858560208301376000602087830101525050509392505050565b80356001600160a01b0381168114611e4c57600080fd5b919050565b600082601f830112611e61578081fd5b61075183833560208501611dbf565b600060208284031215611e81578081fd5b61075182611e35565b60008060408385031215611e9c578081fd5b611ea583611e35565b9150611eb360208401611e35565b90509250929050565b600080600060608486031215611ed0578081fd5b611ed984611e35565b9250611ee760208501611e35565b9150604084013590509250925092565b60008060008060808587031215611f0c578081fd5b611f1585611e35565b9350611f2360208601611e35565b925060408501359150606085013567ffffffffffffffff811115611f45578182fd5b8501601f81018713611f55578182fd5b611f6487823560208401611dbf565b91505092959194509250565b60008060408385031215611f82578182fd5b611f8b83611e35565b915060208301358015158114611f9f578182fd5b809150509250929050565b60008060408385031215611fbc578182fd5b611fc583611e35565b946020939093013593505050565b600060208284031215611fe4578081fd5b813561075181612456565b600060208284031215612000578081fd5b815161075181612456565b60006020828403121561201c578081fd5b813567ffffffffffffffff811115612032578182fd5b610fe884828501611e51565b60006020828403121561204f578081fd5b5035919050565b60008060408385031215612068578182fd5b82359150602083013567ffffffffffffffff811115612085578182fd5b61209185828601611e51565b9150509250929050565b600081518084526120b381602086016020860161237e565b601f01601f19169290920160200192915050565b600083516120d981846020880161237e565b8351908301906120ed81836020880161237e565b01949350505050565b6001600160a01b03858116825284166020820152604081018390526080606082018190526000906121299083018461209b565b9695505050505050565b6001600160a01b03841681526060602082018190526000906121579083018561209b565b8281036040840152612129818561209b565b60018060a01b03831681526000602060408184015281845483600182811c91508083168061219857607f831692505b8583108114156121b657634e487b7160e01b87526022600452602487fd5b60408801839052606088018180156121d557600181146121e657612210565b60ff19861682528782019650612210565b60008b815260209020895b8681101561220a578154848201529085019089016121f1565b83019750505b50949a9950505050505050505050565b60018060a01b0384168152826020820152606060408201526000612247606083018461209b565b95945050505050565b602081526000610751602083018461209b565b60208082526032908201527f4552433732313a207472616e7366657220746f206e6f6e20455243373231526560408201527131b2b4bb32b91034b6b83632b6b2b73a32b960711b606082015260800190565b6020808252818101527f4f776e61626c653a2063616c6c6572206973206e6f7420746865206f776e6572604082015260600190565b60208082526031908201527f4552433732313a207472616e736665722063616c6c6572206973206e6f74206f6040820152701ddb995c881b9bdc88185c1c1c9bdd9959607a1b606082015260800190565b6000821982111561234e5761234e612414565b500190565b6000826123625761236261242a565b500490565b60008282101561237957612379612414565b500390565b60005b83811015612399578181015183820152602001612381565b83811115610ba55750506000910152565b600181811c908216806123be57607f821691505b602082108114156123df57634e487b7160e01b600052602260045260246000fd5b50919050565b60006000198214156123f9576123f9612414565b5060010190565b60008261240f5761240f61242a565b500690565b634e487b7160e01b600052601160045260246000fd5b634e487b7160e01b600052601260045260246000fd5b634e487b7160e01b600052604160045260246000fd5b6001600160e01b0319811681146107e257600080fdfea26469706673582212208ab6db9a4d5827a732a374d9d6a596ca07dec8aa3984822929e6dd3e996891d664736f6c63430008040033",
  "linkReferences": {},
  "deployedLinkReferences": {}
}